{
  "contractName": "SupplyChain",
  "abi": [
    {
      "anonymous": false,
      "inputs": [
        {
          "indexed": false,
          "internalType": "uint256",
          "name": "productId",
          "type": "uint256"
        },
        {
          "indexed": false,
          "internalType": "uint256",
          "name": "newPrice",
          "type": "uint256"
        },
        {
          "indexed": false,
          "internalType": "bool",
          "name": "newStatus",
          "type": "bool"
        },
        {
          "indexed": false,
          "internalType": "uint256",
          "name": "timestamp",
          "type": "uint256"
        }
      ],
      "name": "ProductChanged",
      "type": "event"
    },
    {
      "anonymous": false,
      "inputs": [
        {
          "indexed": false,
          "internalType": "uint256",
          "name": "productId",
          "type": "uint256"
        },
        {
          "indexed": false,
          "internalType": "string",
          "name": "name",
          "type": "string"
        },
        {
          "indexed": false,
          "internalType": "address",
          "name": "manufacturer",
          "type": "address"
        },
        {
          "indexed": false,
          "internalType": "address",
          "name": "currentLocation",
          "type": "address"
        },
        {
          "indexed": false,
          "internalType": "uint256",
          "name": "price",
          "type": "uint256"
        },
        {
          "indexed": false,
          "internalType": "uint256",
          "name": "timestamp",
          "type": "uint256"
        }
      ],
      "name": "ProductCreated",
      "type": "event"
    },
    {
      "anonymous": false,
      "inputs": [
        {
          "indexed": false,
          "internalType": "uint256",
          "name": "productId",
          "type": "uint256"
        },
        {
          "indexed": false,
          "internalType": "address",
          "name": "owner",
          "type": "address"
        },
        {
          "indexed": false,
          "internalType": "address",
          "name": "buyer",
          "type": "address"
        },
        {
          "indexed": false,
          "internalType": "uint256",
          "name": "price",
          "type": "uint256"
        },
        {
          "indexed": false,
          "internalType": "uint256",
          "name": "timestamp",
          "type": "uint256"
        }
      ],
      "name": "ProductSold",
      "type": "event"
    },
    {
      "inputs": [],
      "name": "productCount",
      "outputs": [
        {
          "internalType": "uint256",
          "name": "",
          "type": "uint256"
        }
      ],
      "stateMutability": "view",
      "type": "function",
      "constant": true
    },
    {
      "inputs": [
        {
          "internalType": "uint256",
          "name": "",
          "type": "uint256"
        }
      ],
      "name": "products",
      "outputs": [
        {
          "internalType": "string",
          "name": "name",
          "type": "string"
        },
        {
          "internalType": "address",
          "name": "manufacturer",
          "type": "address"
        },
        {
          "internalType": "address",
          "name": "currentLocation",
          "type": "address"
        },
        {
          "internalType": "uint256",
          "name": "price",
          "type": "uint256"
        },
        {
          "internalType": "bool",
          "name": "isSold",
          "type": "bool"
        }
      ],
      "stateMutability": "view",
      "type": "function",
      "constant": true
    },
    {
      "inputs": [
        {
          "internalType": "string",
          "name": "_name",
          "type": "string"
        },
        {
          "internalType": "uint256",
          "name": "_price",
          "type": "uint256"
        }
      ],
      "name": "createProduct",
      "outputs": [],
      "stateMutability": "nonpayable",
      "type": "function"
    },
    {
      "inputs": [],
      "name": "getProductCount",
      "outputs": [
        {
          "internalType": "uint256",
          "name": "",
          "type": "uint256"
        }
      ],
      "stateMutability": "view",
      "type": "function",
      "constant": true
    },
    {
      "inputs": [
        {
          "internalType": "uint256",
          "name": "productId",
          "type": "uint256"
        }
      ],
      "name": "getProduct",
      "outputs": [
        {
          "internalType": "string",
          "name": "",
          "type": "string"
        },
        {
          "internalType": "address",
          "name": "",
          "type": "address"
        },
        {
          "internalType": "address",
          "name": "",
          "type": "address"
        },
        {
          "internalType": "uint256",
          "name": "",
          "type": "uint256"
        },
        {
          "internalType": "bool",
          "name": "",
          "type": "bool"
        }
      ],
      "stateMutability": "view",
      "type": "function",
      "constant": true
    },
    {
      "inputs": [],
      "name": "getAllProducts",
      "outputs": [
        {
          "internalType": "string[]",
          "name": "",
          "type": "string[]"
        },
        {
          "internalType": "address[]",
          "name": "",
          "type": "address[]"
        },
        {
          "internalType": "address[]",
          "name": "",
          "type": "address[]"
        },
        {
          "internalType": "uint256[]",
          "name": "",
          "type": "uint256[]"
        },
        {
          "internalType": "bool[]",
          "name": "",
          "type": "bool[]"
        }
      ],
      "stateMutability": "view",
      "type": "function",
      "constant": true
    },
    {
      "inputs": [
        {
          "internalType": "uint256",
          "name": "_productId",
          "type": "uint256"
        }
      ],
      "name": "acquireProduct",
      "outputs": [],
      "stateMutability": "payable",
      "type": "function",
      "payable": true
    },
    {
      "inputs": [
        {
          "internalType": "uint256",
          "name": "_productId",
          "type": "uint256"
        },
        {
          "internalType": "uint256",
          "name": "_newPrice",
          "type": "uint256"
        },
        {
          "internalType": "bool",
          "name": "_newStatus",
          "type": "bool"
        }
      ],
      "name": "changeProductAttr",
      "outputs": [],
      "stateMutability": "nonpayable",
      "type": "function"
    }
  ],
  "bytecode": "0x608060405234801561001057600080fd5b50611e42806100206000396000f3fe60806040526004361061007b5760003560e01c80637bb4a8111161004e5780637bb4a81114610137578063b9db15b414610160578063e0f6ef87146101a1578063e9300c6c146101cc5761007b565b806302ee3a52146100805780634a348da9146100af578063660877cf146100da5780637acc0b20146100f6575b600080fd5b34801561008c57600080fd5b506100956101f5565b6040516100a69594939291906112a1565b60405180910390f35b3480156100bb57600080fd5b506100c4610647565b6040516100d19190611326565b60405180910390f35b6100f460048036038101906100ef9190611381565b610651565b005b34801561010257600080fd5b5061011d60048036038101906101189190611381565b610995565b60405161012e959493929190611416565b60405180910390f35b34801561014357600080fd5b5061015e6004803603810190610159919061149c565b610aa0565b005b34801561016c57600080fd5b5061018760048036038101906101829190611381565b610bcc565b604051610198959493929190611416565b60405180910390f35b3480156101ad57600080fd5b506101b6610d2d565b6040516101c39190611326565b60405180910390f35b3480156101d857600080fd5b506101f360048036038101906101ee9190611624565b610d33565b005b6060806060806060600060015467ffffffffffffffff81111561021b5761021a6114f9565b5b60405190808252806020026020018201604052801561024e57816020015b60608152602001906001900390816102395790505b509050600060015467ffffffffffffffff81111561026f5761026e6114f9565b5b60405190808252806020026020018201604052801561029d5781602001602082028036833780820191505090505b509050600060015467ffffffffffffffff8111156102be576102bd6114f9565b5b6040519080825280602002602001820160405280156102ec5781602001602082028036833780820191505090505b509050600060015467ffffffffffffffff81111561030d5761030c6114f9565b5b60405190808252806020026020018201604052801561033b5781602001602082028036833780820191505090505b509050600060015467ffffffffffffffff81111561035c5761035b6114f9565b5b60405190808252806020026020018201604052801561038a5781602001602082028036833780820191505090505b5090506000600190505b600154811161062b5760008082815260200190815260200160002060000180546103bd906116af565b80601f01602080910402602001604051908101604052809291908181526020018280546103e9906116af565b80156104365780601f1061040b57610100808354040283529160200191610436565b820191906000526020600020905b81548152906001019060200180831161041957829003601f168201915b505050505086600183610449919061170f565b8151811061045a57610459611743565b5b602002602001018190525060008082815260200190815260200160002060010160009054906101000a900473ffffffffffffffffffffffffffffffffffffffff16856001836104a9919061170f565b815181106104ba576104b9611743565b5b602002602001019073ffffffffffffffffffffffffffffffffffffffff16908173ffffffffffffffffffffffffffffffffffffffff168152505060008082815260200190815260200160002060020160009054906101000a900473ffffffffffffffffffffffffffffffffffffffff1684600183610538919061170f565b8151811061054957610548611743565b5b602002602001019073ffffffffffffffffffffffffffffffffffffffff16908173ffffffffffffffffffffffffffffffffffffffff168152505060008082815260200190815260200160002060030154836001836105a7919061170f565b815181106105b8576105b7611743565b5b60200260200101818152505060008082815260200190815260200160002060040160009054906101000a900460ff16826001836105f5919061170f565b8151811061060657610605611743565b5b602002602001019015159081151581525050808061062390611772565b915050610394565b5084848484849950995099509950995050505050509091929394565b6000600154905090565b6000151560008083815260200190815260200160002060040160009054906101000a900460ff161515146106ba576040517f08c379a00000000000000000000000000000000000000000000000000000000081526004016106b190611806565b60405180910390fd5b3373ffffffffffffffffffffffffffffffffffffffff1660008083815260200190815260200160002060020160009054906101000a900473ffffffffffffffffffffffffffffffffffffffff1673ffffffffffffffffffffffffffffffffffffffff160361075d576040517f08c379a000000000000000000000000000000000000000000000000000000000815260040161075490611898565b60405180910390fd5b6000808281526020019081526020016000206003015434146107b4576040517f08c379a00000000000000000000000000000000000000000000000000000000081526004016107ab90611904565b60405180910390fd5b600080600083815260200190815260200160002060020160009054906101000a900473ffffffffffffffffffffffffffffffffffffffff1673ffffffffffffffffffffffffffffffffffffffff163460405161080f90611955565b60006040518083038185875af1925050503d806000811461084c576040519150601f19603f3d011682016040523d82523d6000602084013e610851565b606091505b5050905080610895576040517f08c379a000000000000000000000000000000000000000000000000000000000815260040161088c906119b6565b60405180910390fd5b600160008084815260200190815260200160002060040160006101000a81548160ff021916908315150217905550600080600084815260200190815260200160002060020160009054906101000a900473ffffffffffffffffffffffffffffffffffffffff1690503360008085815260200190815260200160002060020160006101000a81548173ffffffffffffffffffffffffffffffffffffffff021916908373ffffffffffffffffffffffffffffffffffffffff1602179055507fd975176f09d35998050b211475ae69a9757d4b277c3033f81ad76f7a71dc341c83823334426040516109889594939291906119d6565b60405180910390a1505050565b60006020528060005260406000206000915090508060000180546109b8906116af565b80601f01602080910402602001604051908101604052809291908181526020018280546109e4906116af565b8015610a315780601f10610a0657610100808354040283529160200191610a31565b820191906000526020600020905b815481529060010190602001808311610a1457829003601f168201915b5050505050908060010160009054906101000a900473ffffffffffffffffffffffffffffffffffffffff16908060020160009054906101000a900473ffffffffffffffffffffffffffffffffffffffff16908060030154908060040160009054906101000a900460ff16905085565b3373ffffffffffffffffffffffffffffffffffffffff1660008085815260200190815260200160002060020160009054906101000a900473ffffffffffffffffffffffffffffffffffffffff1673ffffffffffffffffffffffffffffffffffffffff1614610b43576040517f08c379a0000000000000000000000000000000000000000000000000000000008152600401610b3a90611ac1565b60405180910390fd5b81600080858152602001908152602001600020600301819055508060008085815260200190815260200160002060040160006101000a81548160ff0219169083151502179055507f8cb07cd86cf3e9b07c28cc08d34ad77321d091ccc279bf2c2e105459c6bdac6983838342604051610bbf9493929190611ae1565b60405180910390a1505050565b606060008060008060008087815260200190815260200160002060000160008088815260200190815260200160002060010160009054906101000a900473ffffffffffffffffffffffffffffffffffffffff1660008089815260200190815260200160002060020160009054906101000a900473ffffffffffffffffffffffffffffffffffffffff166000808a8152602001908152602001600020600301546000808b815260200190815260200160002060040160009054906101000a900460ff16848054610c9a906116af565b80601f0160208091040260200160405190810160405280929190818152602001828054610cc6906116af565b8015610d135780601f10610ce857610100808354040283529160200191610d13565b820191906000526020600020905b815481529060010190602001808311610cf657829003601f168201915b505050505094509450945094509450945091939590929450565b60015481565b60016000815480929190610d4690611772565b91905055506040518060a001604052808381526020013373ffffffffffffffffffffffffffffffffffffffff1681526020013373ffffffffffffffffffffffffffffffffffffffff1681526020018281526020016000151581525060008060015481526020019081526020016000206000820151816000019081610dca9190611cd2565b5060208201518160010160006101000a81548173ffffffffffffffffffffffffffffffffffffffff021916908373ffffffffffffffffffffffffffffffffffffffff16021790555060408201518160020160006101000a81548173ffffffffffffffffffffffffffffffffffffffff021916908373ffffffffffffffffffffffffffffffffffffffff1602179055506060820151816003015560808201518160040160006101000a81548160ff0219169083151502179055509050507f6b17cffa3e0c41cd30c98794f0f17083cced8109e52154503d29425fb4d9c4f36001548333338542604051610ec196959493929190611da4565b60405180910390a15050565b600081519050919050565b600082825260208201905092915050565b6000819050602082019050919050565b600081519050919050565b600082825260208201905092915050565b60005b83811015610f33578082015181840152602081019050610f18565b60008484015250505050565b6000601f19601f8301169050919050565b6000610f5b82610ef9565b610f658185610f04565b9350610f75818560208601610f15565b610f7e81610f3f565b840191505092915050565b6000610f958383610f50565b905092915050565b6000602082019050919050565b6000610fb582610ecd565b610fbf8185610ed8565b935083602082028501610fd185610ee9565b8060005b8581101561100d5784840389528151610fee8582610f89565b9450610ff983610f9d565b925060208a01995050600181019050610fd5565b50829750879550505050505092915050565b600081519050919050565b600082825260208201905092915050565b6000819050602082019050919050565b600073ffffffffffffffffffffffffffffffffffffffff82169050919050565b60006110768261104b565b9050919050565b6110868161106b565b82525050565b6000611098838361107d565b60208301905092915050565b6000602082019050919050565b60006110bc8261101f565b6110c6818561102a565b93506110d18361103b565b8060005b838110156111025781516110e9888261108c565b97506110f4836110a4565b9250506001810190506110d5565b5085935050505092915050565b600081519050919050565b600082825260208201905092915050565b6000819050602082019050919050565b6000819050919050565b61114e8161113b565b82525050565b60006111608383611145565b60208301905092915050565b6000602082019050919050565b60006111848261110f565b61118e818561111a565b93506111998361112b565b8060005b838110156111ca5781516111b18882611154565b97506111bc8361116c565b92505060018101905061119d565b5085935050505092915050565b600081519050919050565b600082825260208201905092915050565b6000819050602082019050919050565b60008115159050919050565b61121881611203565b82525050565b600061122a838361120f565b60208301905092915050565b6000602082019050919050565b600061124e826111d7565b61125881856111e2565b9350611263836111f3565b8060005b8381101561129457815161127b888261121e565b975061128683611236565b925050600181019050611267565b5085935050505092915050565b600060a08201905081810360008301526112bb8188610faa565b905081810360208301526112cf81876110b1565b905081810360408301526112e381866110b1565b905081810360608301526112f78185611179565b9050818103608083015261130b8184611243565b90509695505050505050565b6113208161113b565b82525050565b600060208201905061133b6000830184611317565b92915050565b6000604051905090565b600080fd5b600080fd5b61135e8161113b565b811461136957600080fd5b50565b60008135905061137b81611355565b92915050565b6000602082840312156113975761139661134b565b5b60006113a58482850161136c565b91505092915050565b600082825260208201905092915050565b60006113ca82610ef9565b6113d481856113ae565b93506113e4818560208601610f15565b6113ed81610f3f565b840191505092915050565b6114018161106b565b82525050565b61141081611203565b82525050565b600060a082019050818103600083015261143081886113bf565b905061143f60208301876113f8565b61144c60408301866113f8565b6114596060830185611317565b6114666080830184611407565b9695505050505050565b61147981611203565b811461148457600080fd5b50565b60008135905061149681611470565b92915050565b6000806000606084860312156114b5576114b461134b565b5b60006114c38682870161136c565b93505060206114d48682870161136c565b92505060406114e586828701611487565b9150509250925092565b600080fd5b600080fd5b7f4e487b7100000000000000000000000000000000000000000000000000000000600052604160045260246000fd5b61153182610f3f565b810181811067ffffffffffffffff821117156115505761154f6114f9565b5b80604052505050565b6000611563611341565b905061156f8282611528565b919050565b600067ffffffffffffffff82111561158f5761158e6114f9565b5b61159882610f3f565b9050602081019050919050565b82818337600083830152505050565b60006115c76115c284611574565b611559565b9050828152602081018484840111156115e3576115e26114f4565b5b6115ee8482856115a5565b509392505050565b600082601f83011261160b5761160a6114ef565b5b813561161b8482602086016115b4565b91505092915050565b6000806040838503121561163b5761163a61134b565b5b600083013567ffffffffffffffff81111561165957611658611350565b5b611665858286016115f6565b92505060206116768582860161136c565b9150509250929050565b7f4e487b7100000000000000000000000000000000000000000000000000000000600052602260045260246000fd5b600060028204905060018216806116c757607f821691505b6020821081036116da576116d9611680565b5b50919050565b7f4e487b7100000000000000000000000000000000000000000000000000000000600052601160045260246000fd5b600061171a8261113b565b91506117258361113b565b925082820390508181111561173d5761173c6116e0565b5b92915050565b7f4e487b7100000000000000000000000000000000000000000000000000000000600052603260045260246000fd5b600061177d8261113b565b91507fffffffffffffffffffffffffffffffffffffffffffffffffffffffffffffffff82036117af576117ae6116e0565b5b600182019050919050565b7f50726f6475637420697320616c726561647920736f6c64000000000000000000600082015250565b60006117f06017836113ae565b91506117fb826117ba565b602082019050919050565b6000602082019050818103600083015261181f816117e3565b9050919050565b7f596f752063616e6e6f74206163717569726520796f7572206f776e2070726f6460008201527f7563740000000000000000000000000000000000000000000000000000000000602082015250565b60006118826023836113ae565b915061188d82611826565b604082019050919050565b600060208201905081810360008301526118b181611875565b9050919050565b7f496e636f727265637420616d6f756e74206f662045746865722073656e740000600082015250565b60006118ee601e836113ae565b91506118f9826118b8565b602082019050919050565b6000602082019050818103600083015261191d816118e1565b9050919050565b600081905092915050565b50565b600061193f600083611924565b915061194a8261192f565b600082019050919050565b600061196082611932565b9150819050919050565b7f4661696c656420746f2073656e64204574686572000000000000000000000000600082015250565b60006119a06014836113ae565b91506119ab8261196a565b602082019050919050565b600060208201905081810360008301526119cf81611993565b9050919050565b600060a0820190506119eb6000830188611317565b6119f860208301876113f8565b611a0560408301866113f8565b611a126060830185611317565b611a1f6080830184611317565b9695505050505050565b7f596f752063616e6e6f74206368616e6765207468652070726f6475637420707260008201527f69636520617320796f7520617265206e6f74207468652063757272656e74206c60208201527f6f636174696f6e00000000000000000000000000000000000000000000000000604082015250565b6000611aab6047836113ae565b9150611ab682611a29565b606082019050919050565b60006020820190508181036000830152611ada81611a9e565b9050919050565b6000608082019050611af66000830187611317565b611b036020830186611317565b611b106040830185611407565b611b1d6060830184611317565b95945050505050565b60008190508160005260206000209050919050565b60006020601f8301049050919050565b600082821b905092915050565b600060088302611b887fffffffffffffffffffffffffffffffffffffffffffffffffffffffffffffffff82611b4b565b611b928683611b4b565b95508019841693508086168417925050509392505050565b6000819050919050565b6000611bcf611bca611bc58461113b565b611baa565b61113b565b9050919050565b6000819050919050565b611be983611bb4565b611bfd611bf582611bd6565b848454611b58565b825550505050565b600090565b611c12611c05565b611c1d818484611be0565b505050565b5b81811015611c4157611c36600082611c0a565b600181019050611c23565b5050565b601f821115611c8657611c5781611b26565b611c6084611b3b565b81016020851015611c6f578190505b611c83611c7b85611b3b565b830182611c22565b50505b505050565b600082821c905092915050565b6000611ca960001984600802611c8b565b1980831691505092915050565b6000611cc28383611c98565b9150826002028217905092915050565b611cdb82610ef9565b67ffffffffffffffff811115611cf457611cf36114f9565b5b611cfe82546116af565b611d09828285611c45565b600060209050601f831160018114611d3c5760008415611d2a578287015190505b611d348582611cb6565b865550611d9c565b601f198416611d4a86611b26565b60005b82811015611d7257848901518255600182019150602085019450602081019050611d4d565b86831015611d8f5784890151611d8b601f891682611c98565b8355505b6001600288020188555050505b505050505050565b600060c082019050611db96000830189611317565b8181036020830152611dcb81886113bf565b9050611dda60408301876113f8565b611de760608301866113f8565b611df46080830185611317565b611e0160a0830184611317565b97965050505050505056fea2646970667358221220f2523e5bcfe32519f46881b83d3fc64a38581364a0d586e88523c43c006be2db64736f6c63430008130033",
  "immutableReferences": {},
  "source": "// SPDX-License-Identifier: MIT\r\npragma solidity ^0.8.19;\r\n/*\r\nThis contract defines a Product struct that contains information about the product, including its name, manufacturer, and current location. \r\nIt also includes a boolean flag that indicates whether the product has been sold.\r\n\r\nThe SupplyChain contract includes a mapping that allows you to store multiple products, as well as a productCount variable that keeps track \r\nof the number of products in the mapping.\r\n\r\nThe contract includes four functions for updating the supply chain: createProduct, shipProduct, receiveProduct, and sellProduct. The \r\ncreateProduct function allows you to create a new product and add it to the mapping. The other three functions allow you to update the \r\ncurrent location of a product as it moves through the supply chain.\r\n\r\nThe contract also includes four events (ProductCreated, ProductShipped, ProductReceived, and ProductSold) that can be emitted whenever a \r\nproduct is created or its status is updated. These events can be used to notify users of changes to the supply chain.\r\n*/\r\ncontract SupplyChain {\r\n\r\n    \r\n    struct Product {\r\n        string name;\r\n        address manufacturer;\r\n        address currentLocation;\r\n        uint256 price;\r\n        bool isSold;\r\n    }\r\n\r\n    mapping (uint => Product) public products;\r\n    uint public productCount;\r\n\r\n    event ProductCreated(uint productId, string name, address manufacturer, address currentLocation, uint256 price, uint256 timestamp);\r\n    event ProductChanged(uint productId, uint256 newPrice, bool newStatus, uint256 timestamp);\r\n    event ProductSold(uint productId, address owner, address buyer, uint256 price, uint256 timestamp);\r\n    \r\n    function createProduct(string memory _name, uint256 _price) public {\r\n        productCount++;\r\n\r\n        products[productCount] = Product(_name, msg.sender, msg.sender, _price, false);\r\n        emit ProductCreated(productCount, _name, msg.sender, msg.sender, _price, block.timestamp);\r\n    }\r\n\r\n    function getProductCount() public view returns (uint) {\r\n        return productCount;\r\n    }\r\n    \r\n    function getProduct(uint productId) public view returns (string memory, address , address ,  uint256 , bool ) {\r\n        return (products[productId].name, products[productId].manufacturer, products[productId].currentLocation,\r\n            products[productId].price,products[productId].isSold);\r\n    }\r\n\r\n    function getAllProducts() public view returns (string[] memory, address[] memory, address[] memory,  uint256[] memory, bool[] memory) {\r\n        string[] memory names  = new string[](productCount);\r\n        address[] memory manufacturers = new address[](productCount);\r\n        address[] memory currentLocations = new address[](productCount);\r\n        uint256[] memory prices = new uint256[](productCount);\r\n        bool[] memory status = new bool[](productCount);\r\n\r\n        for (uint i = 1; i <= productCount; i++) {\r\n            names[i-1] = products[i].name;\r\n            manufacturers[i-1] = products[i].manufacturer;\r\n            currentLocations[i-1] = products[i].currentLocation;\r\n            prices[i-1] = products[i].price;\r\n            status[i-1] = products[i].isSold;\r\n        }\r\n        return (names, manufacturers, currentLocations, prices, status);\r\n    }\r\n\r\n    function acquireProduct(uint _productId) payable public {\r\n        require(products[_productId].isSold == false, \"Product is already sold\");\r\n        require(products[_productId].currentLocation != msg.sender, \"You cannot acquire your own product\");\r\n        require(msg.value == products[_productId].price, \"Incorrect amount of Ether sent\");\r\n\r\n        (bool sent, ) = payable(products[_productId].currentLocation).call{value: msg.value}(\"\");\r\n        require(sent, \"Failed to send Ether\");\r\n\r\n        products[_productId].isSold = true;\r\n        address owner = products[_productId].currentLocation;\r\n        products[_productId].currentLocation = msg.sender;\r\n\r\n        emit ProductSold(_productId, owner, msg.sender, msg.value, block.timestamp);\r\n    }\r\n\r\n    function changeProductAttr(uint _productId, uint256 _newPrice, bool _newStatus) public {\r\n        require(products[_productId].currentLocation == msg.sender, \"You cannot change the product price as you are not the current location\");\r\n\r\n        products[_productId].price = _newPrice;\r\n        products[_productId].isSold = _newStatus;\r\n        emit ProductChanged(_productId, _newPrice, _newStatus, block.timestamp);\r\n    }\r\n\r\n}\r\n",
  "sourcePath": "C:\\Users\\mlimo\\Desktop\\GitHub\\SicurezzDeiDati\\contracts\\SupplyChain.sol",
  "compiler": {
    "name": "solc",
    "version": "0.8.19+commit.7dd6d404.Emscripten.clang"
  },
  "schemaVersion": "3.4.12",
  "updatedAt": "2023-03-04T08:34:38.315Z",
  "networkType": "ethereum",
  "devdoc": {
    "kind": "dev",
    "methods": {},
    "version": 1
  },
  "userdoc": {
    "kind": "user",
    "methods": {},
    "version": 1
  }
}