{
  "contractName": "SupplyChain",
  "abi": [
    {
      "anonymous": false,
      "inputs": [
        {
          "indexed": false,
          "internalType": "uint256",
          "name": "productId",
          "type": "uint256"
        },
        {
          "indexed": false,
          "internalType": "uint256",
          "name": "newPrice",
          "type": "uint256"
        },
        {
          "indexed": false,
          "internalType": "bool",
          "name": "newStatus",
          "type": "bool"
        },
        {
          "indexed": false,
          "internalType": "uint256",
          "name": "timestamp",
          "type": "uint256"
        }
      ],
      "name": "ProductChanged",
      "type": "event"
    },
    {
      "anonymous": false,
      "inputs": [
        {
          "indexed": false,
          "internalType": "uint256",
          "name": "productId",
          "type": "uint256"
        },
        {
          "indexed": false,
          "internalType": "string",
          "name": "name",
          "type": "string"
        },
        {
          "indexed": false,
          "internalType": "address",
          "name": "manufacturer",
          "type": "address"
        },
        {
          "indexed": false,
          "internalType": "address",
          "name": "currentLocation",
          "type": "address"
        },
        {
          "indexed": false,
          "internalType": "uint256",
          "name": "price",
          "type": "uint256"
        },
        {
          "indexed": false,
          "internalType": "uint256",
          "name": "timestamp",
          "type": "uint256"
        }
      ],
      "name": "ProductCreated",
      "type": "event"
    },
    {
      "anonymous": false,
      "inputs": [
        {
          "indexed": false,
          "internalType": "uint256",
          "name": "productId",
          "type": "uint256"
        },
        {
          "indexed": false,
          "internalType": "address",
          "name": "owner",
          "type": "address"
        },
        {
          "indexed": false,
          "internalType": "address",
          "name": "buyer",
          "type": "address"
        },
        {
          "indexed": false,
          "internalType": "uint256",
          "name": "price",
          "type": "uint256"
        },
        {
          "indexed": false,
          "internalType": "uint256",
          "name": "timestamp",
          "type": "uint256"
        }
      ],
      "name": "ProductSold",
      "type": "event"
    },
    {
      "inputs": [],
      "name": "productCount",
      "outputs": [
        {
          "internalType": "uint256",
          "name": "",
          "type": "uint256"
        }
      ],
      "stateMutability": "view",
      "type": "function",
      "constant": true
    },
    {
      "inputs": [
        {
          "internalType": "uint256",
          "name": "",
          "type": "uint256"
        }
      ],
      "name": "products",
      "outputs": [
        {
          "internalType": "string",
          "name": "name",
          "type": "string"
        },
        {
          "internalType": "address",
          "name": "manufacturer",
          "type": "address"
        },
        {
          "internalType": "address",
          "name": "currentLocation",
          "type": "address"
        },
        {
          "internalType": "uint256",
          "name": "price",
          "type": "uint256"
        },
        {
          "internalType": "bool",
          "name": "isSold",
          "type": "bool"
        }
      ],
      "stateMutability": "view",
      "type": "function",
      "constant": true
    },
    {
      "inputs": [
        {
          "internalType": "string",
          "name": "_name",
          "type": "string"
        },
        {
          "internalType": "uint256",
          "name": "_price",
          "type": "uint256"
        }
      ],
      "name": "createProduct",
      "outputs": [],
      "stateMutability": "nonpayable",
      "type": "function"
    },
    {
      "inputs": [],
      "name": "getProductCount",
      "outputs": [
        {
          "internalType": "uint256",
          "name": "",
          "type": "uint256"
        }
      ],
      "stateMutability": "view",
      "type": "function",
      "constant": true
    },
    {
      "inputs": [
        {
          "internalType": "uint256",
          "name": "productId",
          "type": "uint256"
        }
      ],
      "name": "getProduct",
      "outputs": [
        {
          "internalType": "string",
          "name": "",
          "type": "string"
        },
        {
          "internalType": "address",
          "name": "",
          "type": "address"
        },
        {
          "internalType": "address",
          "name": "",
          "type": "address"
        },
        {
          "internalType": "uint256",
          "name": "",
          "type": "uint256"
        },
        {
          "internalType": "bool",
          "name": "",
          "type": "bool"
        }
      ],
      "stateMutability": "view",
      "type": "function",
      "constant": true
    },
    {
      "inputs": [
        {
          "internalType": "uint256",
          "name": "_productId",
          "type": "uint256"
        }
      ],
      "name": "acquireProduct",
      "outputs": [],
      "stateMutability": "payable",
      "type": "function",
      "payable": true
    },
    {
      "inputs": [
        {
          "internalType": "uint256",
          "name": "_productId",
          "type": "uint256"
        },
        {
          "internalType": "uint256",
          "name": "_newPrice",
          "type": "uint256"
        },
        {
          "internalType": "bool",
          "name": "_newStatus",
          "type": "bool"
        }
      ],
      "name": "changeProductAttr",
      "outputs": [],
      "stateMutability": "nonpayable",
      "type": "function"
    }
  ],
  "bytecode": "0x608060405234801561001057600080fd5b50611571806100206000396000f3fe6080604052600436106100705760003560e01c80637bb4a8111161004e5780637bb4a811146100fd578063b9db15b414610126578063e0f6ef8714610167578063e9300c6c1461019257610070565b80634a348da914610075578063660877cf146100a05780637acc0b20146100bc575b600080fd5b34801561008157600080fd5b5061008a6101bb565b6040516100979190610a5a565b60405180910390f35b6100ba60048036038101906100b59190610ab5565b6101c5565b005b3480156100c857600080fd5b506100e360048036038101906100de9190610ab5565b610509565b6040516100f4959493929190610bce565b60405180910390f35b34801561010957600080fd5b50610124600480360381019061011f9190610c54565b610614565b005b34801561013257600080fd5b5061014d60048036038101906101489190610ab5565b610740565b60405161015e959493929190610bce565b60405180910390f35b34801561017357600080fd5b5061017c6108a1565b6040516101899190610a5a565b60405180910390f35b34801561019e57600080fd5b506101b960048036038101906101b49190610ddc565b6108a7565b005b6000600154905090565b6000151560008083815260200190815260200160002060040160009054906101000a900460ff1615151461022e576040517f08c379a000000000000000000000000000000000000000000000000000000000815260040161022590610e84565b60405180910390fd5b3373ffffffffffffffffffffffffffffffffffffffff1660008083815260200190815260200160002060020160009054906101000a900473ffffffffffffffffffffffffffffffffffffffff1673ffffffffffffffffffffffffffffffffffffffff16036102d1576040517f08c379a00000000000000000000000000000000000000000000000000000000081526004016102c890610f16565b60405180910390fd5b600080828152602001908152602001600020600301543414610328576040517f08c379a000000000000000000000000000000000000000000000000000000000815260040161031f90610f82565b60405180910390fd5b600080600083815260200190815260200160002060020160009054906101000a900473ffffffffffffffffffffffffffffffffffffffff1673ffffffffffffffffffffffffffffffffffffffff163460405161038390610fd3565b60006040518083038185875af1925050503d80600081146103c0576040519150601f19603f3d011682016040523d82523d6000602084013e6103c5565b606091505b5050905080610409576040517f08c379a000000000000000000000000000000000000000000000000000000000815260040161040090611034565b60405180910390fd5b600080600084815260200190815260200160002060020160009054906101000a900473ffffffffffffffffffffffffffffffffffffffff169050600160008085815260200190815260200160002060040160006101000a81548160ff0219169083151502179055503360008085815260200190815260200160002060020160006101000a81548173ffffffffffffffffffffffffffffffffffffffff021916908373ffffffffffffffffffffffffffffffffffffffff1602179055507fd975176f09d35998050b211475ae69a9757d4b277c3033f81ad76f7a71dc341c83823334426040516104fc959493929190611054565b60405180910390a1505050565b600060205280600052604060002060009150905080600001805461052c906110d6565b80601f0160208091040260200160405190810160405280929190818152602001828054610558906110d6565b80156105a55780601f1061057a576101008083540402835291602001916105a5565b820191906000526020600020905b81548152906001019060200180831161058857829003601f168201915b5050505050908060010160009054906101000a900473ffffffffffffffffffffffffffffffffffffffff16908060020160009054906101000a900473ffffffffffffffffffffffffffffffffffffffff16908060030154908060040160009054906101000a900460ff16905085565b3373ffffffffffffffffffffffffffffffffffffffff1660008085815260200190815260200160002060020160009054906101000a900473ffffffffffffffffffffffffffffffffffffffff1673ffffffffffffffffffffffffffffffffffffffff16146106b7576040517f08c379a00000000000000000000000000000000000000000000000000000000081526004016106ae90611179565b60405180910390fd5b81600080858152602001908152602001600020600301819055508060008085815260200190815260200160002060040160006101000a81548160ff0219169083151502179055507f8cb07cd86cf3e9b07c28cc08d34ad77321d091ccc279bf2c2e105459c6bdac69838383426040516107339493929190611199565b60405180910390a1505050565b606060008060008060008087815260200190815260200160002060000160008088815260200190815260200160002060010160009054906101000a900473ffffffffffffffffffffffffffffffffffffffff1660008089815260200190815260200160002060020160009054906101000a900473ffffffffffffffffffffffffffffffffffffffff166000808a8152602001908152602001600020600301546000808b815260200190815260200160002060040160009054906101000a900460ff1684805461080e906110d6565b80601f016020809104026020016040519081016040528092919081815260200182805461083a906110d6565b80156108875780601f1061085c57610100808354040283529160200191610887565b820191906000526020600020905b81548152906001019060200180831161086a57829003601f168201915b505050505094509450945094509450945091939590929450565b60015481565b600160008154809291906108ba9061120d565b91905055506040518060a001604052808381526020013373ffffffffffffffffffffffffffffffffffffffff1681526020013373ffffffffffffffffffffffffffffffffffffffff168152602001828152602001600015158152506000806001548152602001908152602001600020600082015181600001908161093e9190611401565b5060208201518160010160006101000a81548173ffffffffffffffffffffffffffffffffffffffff021916908373ffffffffffffffffffffffffffffffffffffffff16021790555060408201518160020160006101000a81548173ffffffffffffffffffffffffffffffffffffffff021916908373ffffffffffffffffffffffffffffffffffffffff1602179055506060820151816003015560808201518160040160006101000a81548160ff0219169083151502179055509050507f6b17cffa3e0c41cd30c98794f0f17083cced8109e52154503d29425fb4d9c4f36001548333338542604051610a35969594939291906114d3565b60405180910390a15050565b6000819050919050565b610a5481610a41565b82525050565b6000602082019050610a6f6000830184610a4b565b92915050565b6000604051905090565b600080fd5b600080fd5b610a9281610a41565b8114610a9d57600080fd5b50565b600081359050610aaf81610a89565b92915050565b600060208284031215610acb57610aca610a7f565b5b6000610ad984828501610aa0565b91505092915050565b600081519050919050565b600082825260208201905092915050565b60005b83811015610b1c578082015181840152602081019050610b01565b60008484015250505050565b6000601f19601f8301169050919050565b6000610b4482610ae2565b610b4e8185610aed565b9350610b5e818560208601610afe565b610b6781610b28565b840191505092915050565b600073ffffffffffffffffffffffffffffffffffffffff82169050919050565b6000610b9d82610b72565b9050919050565b610bad81610b92565b82525050565b60008115159050919050565b610bc881610bb3565b82525050565b600060a0820190508181036000830152610be88188610b39565b9050610bf76020830187610ba4565b610c046040830186610ba4565b610c116060830185610a4b565b610c1e6080830184610bbf565b9695505050505050565b610c3181610bb3565b8114610c3c57600080fd5b50565b600081359050610c4e81610c28565b92915050565b600080600060608486031215610c6d57610c6c610a7f565b5b6000610c7b86828701610aa0565b9350506020610c8c86828701610aa0565b9250506040610c9d86828701610c3f565b9150509250925092565b600080fd5b600080fd5b7f4e487b7100000000000000000000000000000000000000000000000000000000600052604160045260246000fd5b610ce982610b28565b810181811067ffffffffffffffff82111715610d0857610d07610cb1565b5b80604052505050565b6000610d1b610a75565b9050610d278282610ce0565b919050565b600067ffffffffffffffff821115610d4757610d46610cb1565b5b610d5082610b28565b9050602081019050919050565b82818337600083830152505050565b6000610d7f610d7a84610d2c565b610d11565b905082815260208101848484011115610d9b57610d9a610cac565b5b610da6848285610d5d565b509392505050565b600082601f830112610dc357610dc2610ca7565b5b8135610dd3848260208601610d6c565b91505092915050565b60008060408385031215610df357610df2610a7f565b5b600083013567ffffffffffffffff811115610e1157610e10610a84565b5b610e1d85828601610dae565b9250506020610e2e85828601610aa0565b9150509250929050565b7f50726f646f74746f206e6f6e20696e2076656e64697461000000000000000000600082015250565b6000610e6e601783610aed565b9150610e7982610e38565b602082019050919050565b60006020820190508181036000830152610e9d81610e61565b9050919050565b7f4e6f6e2070756f69206163717569737461726520756e2070726f646f74746f2060008201527f706f7373656475746f0000000000000000000000000000000000000000000000602082015250565b6000610f00602983610aed565b9150610f0b82610ea4565b604082019050919050565b60006020820190508181036000830152610f2f81610ef3565b9050919050565b7f496e636f727265637420616d6f756e74206f662045746865722073656e740000600082015250565b6000610f6c601e83610aed565b9150610f7782610f36565b602082019050919050565b60006020820190508181036000830152610f9b81610f5f565b9050919050565b600081905092915050565b50565b6000610fbd600083610fa2565b9150610fc882610fad565b600082019050919050565b6000610fde82610fb0565b9150819050919050565b7f4661696c656420746f2073656e64204574686572000000000000000000000000600082015250565b600061101e601483610aed565b915061102982610fe8565b602082019050919050565b6000602082019050818103600083015261104d81611011565b9050919050565b600060a0820190506110696000830188610a4b565b6110766020830187610ba4565b6110836040830186610ba4565b6110906060830185610a4b565b61109d6080830184610a4b565b9695505050505050565b7f4e487b7100000000000000000000000000000000000000000000000000000000600052602260045260246000fd5b600060028204905060018216806110ee57607f821691505b602082108103611101576111006110a7565b5b50919050565b7f4e6f6e2073656920696c2070726f70726965746172696f2064656c2070726f6460008201527f6f74746f00000000000000000000000000000000000000000000000000000000602082015250565b6000611163602483610aed565b915061116e82611107565b604082019050919050565b6000602082019050818103600083015261119281611156565b9050919050565b60006080820190506111ae6000830187610a4b565b6111bb6020830186610a4b565b6111c86040830185610bbf565b6111d56060830184610a4b565b95945050505050565b7f4e487b7100000000000000000000000000000000000000000000000000000000600052601160045260246000fd5b600061121882610a41565b91507fffffffffffffffffffffffffffffffffffffffffffffffffffffffffffffffff820361124a576112496111de565b5b600182019050919050565b60008190508160005260206000209050919050565b60006020601f8301049050919050565b600082821b905092915050565b6000600883026112b77fffffffffffffffffffffffffffffffffffffffffffffffffffffffffffffffff8261127a565b6112c1868361127a565b95508019841693508086168417925050509392505050565b6000819050919050565b60006112fe6112f96112f484610a41565b6112d9565b610a41565b9050919050565b6000819050919050565b611318836112e3565b61132c61132482611305565b848454611287565b825550505050565b600090565b611341611334565b61134c81848461130f565b505050565b5b8181101561137057611365600082611339565b600181019050611352565b5050565b601f8211156113b55761138681611255565b61138f8461126a565b8101602085101561139e578190505b6113b26113aa8561126a565b830182611351565b50505b505050565b600082821c905092915050565b60006113d8600019846008026113ba565b1980831691505092915050565b60006113f183836113c7565b9150826002028217905092915050565b61140a82610ae2565b67ffffffffffffffff81111561142357611422610cb1565b5b61142d82546110d6565b611438828285611374565b600060209050601f83116001811461146b5760008415611459578287015190505b61146385826113e5565b8655506114cb565b601f19841661147986611255565b60005b828110156114a15784890151825560018201915060208501945060208101905061147c565b868310156114be57848901516114ba601f8916826113c7565b8355505b6001600288020188555050505b505050505050565b600060c0820190506114e86000830189610a4b565b81810360208301526114fa8188610b39565b90506115096040830187610ba4565b6115166060830186610ba4565b6115236080830185610a4b565b61153060a0830184610a4b565b97965050505050505056fea2646970667358221220d1d53ce4556537b5f68da529c62c6f2e937d0a60d3f06c643276e8986516bf4a64736f6c63430008130033",
  "immutableReferences": {},
  "source": "// SPDX-License-Identifier: MIT\r\npragma solidity ^0.8.19;\r\n\r\ncontract SupplyChain {\r\n\r\n    struct Product {\r\n        string name; // Nome del prodotto\r\n        address manufacturer; // Indirizzo del produttore\r\n        address currentLocation; // Indirizzo del proprietario attuale\r\n        uint256 price; // Prezzo del prodotto\r\n        bool isSold; // Flag che indica se il prodotto  in vendita\r\n    }\r\n\r\n    // Mappatura che tiene traccia dei prodotti in base al loro ID\r\n    mapping (uint => Product) public products;\r\n\r\n    // Contatore dei prodotti presenti nel contratto\r\n    uint public productCount;\r\n\r\n    // Dichiarazione degli eventi emessi dal contratto\r\n    event ProductCreated(uint productId, string name, address manufacturer, address currentLocation, uint256 price, uint256 timestamp);\r\n    event ProductChanged(uint productId, uint256 newPrice, bool newStatus, uint256 timestamp);\r\n    event ProductSold(uint productId, address owner, address buyer, uint256 price, uint256 timestamp);\r\n    \r\n    // Funzione per la creazione di un nuovo prodotto\r\n    function createProduct(string memory _name, uint256 _price) public {\r\n        // Incrementa il contatore dei prodotti\r\n        productCount++;\r\n\r\n        // Aggiunge il nuovo prodotto alla mappatura dei prodotti\r\n        products[productCount] = Product(_name, msg.sender, msg.sender, _price, false);\r\n\r\n        // Emette l'evento ProductCreated per segnalare la creazione del nuovo prodotto\r\n        emit ProductCreated(productCount, _name, msg.sender, msg.sender, _price, block.timestamp);\r\n    }\r\n\r\n    // Funzione per ottenere il numero totale di prodotti presenti nel contratto\r\n    function getProductCount() public view returns (uint) {\r\n        return productCount;\r\n    }\r\n    \r\n    // Funzione per ottenere le informazioni relative a un determinato prodotto\r\n    function getProduct(uint productId) public view returns (string memory, address , address ,  uint256 , bool ) {\r\n        return (products[productId].name, products[productId].manufacturer, products[productId].currentLocation,\r\n            products[productId].price,products[productId].isSold);\r\n    }\r\n\r\n    // Funzione per acquistare un prodotto\r\n    function acquireProduct(uint _productId) payable public {\r\n        // Verifica se il prodotto  gi stato venduto\r\n        require(products[_productId].isSold == false, \"Prodotto non in vendita\");\r\n        // Verifica se l'acquirente non  anche il venditore\r\n        require(products[_productId].currentLocation != msg.sender, \"Non puoi acquistare un prodotto posseduto\");\r\n        // Verifica se la quantit di Ether inviata  uguale al prezzo del prodotto\r\n        require(msg.value == products[_productId].price, \"Incorrect amount of Ether sent\");\r\n\r\n        // Effettua il trasferimento di Ether dal compratore al venditore\r\n        (bool sent, ) = payable(products[_productId].currentLocation).call{value: msg.value}(\"\");\r\n\r\n        // Controllo che il trasferimento sia avvenuto con successo\r\n        require(sent, \"Failed to send Ether\");\r\n\r\n        // Tengo traccia del precedente proprietario per l'evento\r\n        address oldOwner = products[_productId].currentLocation;\r\n        // Aggiorna lo stato del prodotto\r\n        products[_productId].isSold = true;\r\n        // Aggiorna il proprietario del prodotto\r\n        products[_productId].currentLocation = msg.sender;\r\n\r\n        // Emetto l'evento ProductSold per segnalare l'acquisto del prodotto\r\n        emit ProductSold(_productId, oldOwner, msg.sender, msg.value, block.timestamp);\r\n    }\r\n\r\n    // Funzione per cambiare stato e prezzo di un prodotto\r\n    function changeProductAttr(uint _productId, uint256 _newPrice, bool _newStatus) public {\r\n        // Verifica se chi richiama la funzione  il proprietario del prodotto\r\n        require(products[_productId].currentLocation == msg.sender, \"Non sei il proprietario del prodotto\");\r\n        // Aggiorna il prezzo del prodotto\r\n        products[_productId].price = _newPrice;\r\n        // Aggiorna lo stato del prodotto\r\n        products[_productId].isSold = _newStatus;\r\n        // Emette l'evento ProductChanged per segnalare che il prodotto  stato modificato\r\n        emit ProductChanged(_productId, _newPrice, _newStatus, block.timestamp);\r\n    }\r\n\r\n}\r\n",
  "sourcePath": "C:\\Users\\mlimo\\Desktop\\GitHub\\SicurezzDeiDati\\contracts\\SupplyChain.sol",
  "compiler": {
    "name": "solc",
    "version": "0.8.19+commit.7dd6d404.Emscripten.clang"
  },
  "schemaVersion": "3.4.12",
  "updatedAt": "2023-03-07T10:51:46.771Z",
  "networkType": "ethereum",
  "devdoc": {
    "kind": "dev",
    "methods": {},
    "version": 1
  },
  "userdoc": {
    "kind": "user",
    "methods": {},
    "version": 1
  }
}