{
  "contractName": "SupplyChain",
  "abi": [
    {
      "anonymous": false,
      "inputs": [
        {
          "indexed": false,
          "internalType": "uint256",
          "name": "productId",
          "type": "uint256"
        },
        {
          "indexed": false,
          "internalType": "uint256",
          "name": "newPrice",
          "type": "uint256"
        },
        {
          "indexed": false,
          "internalType": "bool",
          "name": "newStatus",
          "type": "bool"
        },
        {
          "indexed": false,
          "internalType": "uint256",
          "name": "timestamp",
          "type": "uint256"
        }
      ],
      "name": "ProductChanged",
      "type": "event"
    },
    {
      "anonymous": false,
      "inputs": [
        {
          "indexed": false,
          "internalType": "uint256",
          "name": "productId",
          "type": "uint256"
        },
        {
          "indexed": false,
          "internalType": "string",
          "name": "name",
          "type": "string"
        },
        {
          "indexed": false,
          "internalType": "address",
          "name": "manufacturer",
          "type": "address"
        },
        {
          "indexed": false,
          "internalType": "address",
          "name": "currentLocation",
          "type": "address"
        },
        {
          "indexed": false,
          "internalType": "uint256",
          "name": "price",
          "type": "uint256"
        },
        {
          "indexed": false,
          "internalType": "uint256",
          "name": "timestamp",
          "type": "uint256"
        }
      ],
      "name": "ProductCreated",
      "type": "event"
    },
    {
      "anonymous": false,
      "inputs": [
        {
          "indexed": false,
          "internalType": "uint256",
          "name": "productId",
          "type": "uint256"
        },
        {
          "indexed": false,
          "internalType": "address",
          "name": "owner",
          "type": "address"
        },
        {
          "indexed": false,
          "internalType": "address",
          "name": "buyer",
          "type": "address"
        },
        {
          "indexed": false,
          "internalType": "uint256",
          "name": "price",
          "type": "uint256"
        },
        {
          "indexed": false,
          "internalType": "uint256",
          "name": "timestamp",
          "type": "uint256"
        }
      ],
      "name": "ProductSold",
      "type": "event"
    },
    {
      "inputs": [],
      "name": "productCount",
      "outputs": [
        {
          "internalType": "uint256",
          "name": "",
          "type": "uint256"
        }
      ],
      "stateMutability": "view",
      "type": "function",
      "constant": true
    },
    {
      "inputs": [
        {
          "internalType": "uint256",
          "name": "",
          "type": "uint256"
        }
      ],
      "name": "products",
      "outputs": [
        {
          "internalType": "string",
          "name": "name",
          "type": "string"
        },
        {
          "internalType": "address",
          "name": "manufacturer",
          "type": "address"
        },
        {
          "internalType": "address",
          "name": "currentLocation",
          "type": "address"
        },
        {
          "internalType": "uint256",
          "name": "price",
          "type": "uint256"
        },
        {
          "internalType": "bool",
          "name": "isSold",
          "type": "bool"
        }
      ],
      "stateMutability": "view",
      "type": "function",
      "constant": true
    },
    {
      "inputs": [
        {
          "internalType": "string",
          "name": "_name",
          "type": "string"
        },
        {
          "internalType": "uint256",
          "name": "_price",
          "type": "uint256"
        }
      ],
      "name": "createProduct",
      "outputs": [],
      "stateMutability": "nonpayable",
      "type": "function"
    },
    {
      "inputs": [],
      "name": "getProductCount",
      "outputs": [
        {
          "internalType": "uint256",
          "name": "",
          "type": "uint256"
        }
      ],
      "stateMutability": "view",
      "type": "function",
      "constant": true
    },
    {
      "inputs": [
        {
          "internalType": "uint256",
          "name": "productId",
          "type": "uint256"
        }
      ],
      "name": "getProduct",
      "outputs": [
        {
          "internalType": "string",
          "name": "",
          "type": "string"
        },
        {
          "internalType": "address",
          "name": "",
          "type": "address"
        },
        {
          "internalType": "address",
          "name": "",
          "type": "address"
        },
        {
          "internalType": "uint256",
          "name": "",
          "type": "uint256"
        },
        {
          "internalType": "bool",
          "name": "",
          "type": "bool"
        }
      ],
      "stateMutability": "view",
      "type": "function",
      "constant": true
    },
    {
      "inputs": [
        {
          "internalType": "uint256",
          "name": "_productId",
          "type": "uint256"
        }
      ],
      "name": "acquireProduct",
      "outputs": [],
      "stateMutability": "payable",
      "type": "function",
      "payable": true
    },
    {
      "inputs": [
        {
          "internalType": "uint256",
          "name": "_productId",
          "type": "uint256"
        },
        {
          "internalType": "uint256",
          "name": "_newPrice",
          "type": "uint256"
        },
        {
          "internalType": "bool",
          "name": "_newStatus",
          "type": "bool"
        }
      ],
      "name": "changeProductAttr",
      "outputs": [],
      "stateMutability": "nonpayable",
      "type": "function"
    }
  ],
  "bytecode": "0x608060405234801561001057600080fd5b5061165c806100206000396000f3fe6080604052600436106100705760003560e01c80637bb4a8111161004e5780637bb4a811146100fd578063b9db15b414610126578063e0f6ef8714610167578063e9300c6c1461019257610070565b80634a348da914610075578063660877cf146100a05780637acc0b20146100bc575b600080fd5b34801561008157600080fd5b5061008a6101bb565b6040516100979190610ab3565b60405180910390f35b6100ba60048036038101906100b59190610b0e565b6101c5565b005b3480156100c857600080fd5b506100e360048036038101906100de9190610b0e565b610560565b6040516100f4959493929190610c27565b60405180910390f35b34801561010957600080fd5b50610124600480360381019061011f9190610cad565b61066b565b005b34801561013257600080fd5b5061014d60048036038101906101489190610b0e565b610799565b60405161015e959493929190610c27565b60405180910390f35b34801561017357600080fd5b5061017c6108fa565b6040516101899190610ab3565b60405180910390f35b34801561019e57600080fd5b506101b960048036038101906101b49190610e35565b610900565b005b6000600154905090565b803373ffffffffffffffffffffffffffffffffffffffff1660008083815260200190815260200160002060020160009054906101000a900473ffffffffffffffffffffffffffffffffffffffff1673ffffffffffffffffffffffffffffffffffffffff1603610269576040517f08c379a000000000000000000000000000000000000000000000000000000000815260040161026090610f03565b60405180910390fd5b8160008111801561027c57506001548111155b6102bb576040517f08c379a00000000000000000000000000000000000000000000000000000000081526004016102b290610f6f565b60405180910390fd5b6000151560008083815260200190815260200160002060040160009054906101000a900460ff16151514610324576040517f08c379a000000000000000000000000000000000000000000000000000000000815260040161031b90610fdb565b60405180910390fd5b8260008082815260200190815260200160002060030154341461037c576040517f08c379a00000000000000000000000000000000000000000000000000000000081526004016103739061106d565b60405180910390fd5b600080600086815260200190815260200160002060020160009054906101000a900473ffffffffffffffffffffffffffffffffffffffff1673ffffffffffffffffffffffffffffffffffffffff16346040516103d7906110be565b60006040518083038185875af1925050503d8060008114610414576040519150601f19603f3d011682016040523d82523d6000602084013e610419565b606091505b505090508061045d576040517f08c379a00000000000000000000000000000000000000000000000000000000081526004016104549061111f565b60405180910390fd5b600080600087815260200190815260200160002060020160009054906101000a900473ffffffffffffffffffffffffffffffffffffffff169050600160008088815260200190815260200160002060040160006101000a81548160ff0219169083151502179055503360008088815260200190815260200160002060020160006101000a81548173ffffffffffffffffffffffffffffffffffffffff021916908373ffffffffffffffffffffffffffffffffffffffff1602179055507fd975176f09d35998050b211475ae69a9757d4b277c3033f81ad76f7a71dc341c868233344260405161055095949392919061113f565b60405180910390a1505050505050565b6000602052806000526040600020600091509050806000018054610583906111c1565b80601f01602080910402602001604051908101604052809291908181526020018280546105af906111c1565b80156105fc5780601f106105d1576101008083540402835291602001916105fc565b820191906000526020600020905b8154815290600101906020018083116105df57829003601f168201915b5050505050908060010160009054906101000a900473ffffffffffffffffffffffffffffffffffffffff16908060020160009054906101000a900473ffffffffffffffffffffffffffffffffffffffff16908060030154908060040160009054906101000a900460ff16905085565b823373ffffffffffffffffffffffffffffffffffffffff1660008083815260200190815260200160002060020160009054906101000a900473ffffffffffffffffffffffffffffffffffffffff1673ffffffffffffffffffffffffffffffffffffffff161461070f576040517f08c379a000000000000000000000000000000000000000000000000000000000815260040161070690611264565b60405180910390fd5b82600080868152602001908152602001600020600301819055508160008086815260200190815260200160002060040160006101000a81548160ff0219169083151502179055507f8cb07cd86cf3e9b07c28cc08d34ad77321d091ccc279bf2c2e105459c6bdac698484844260405161078b9493929190611284565b60405180910390a150505050565b606060008060008060008087815260200190815260200160002060000160008088815260200190815260200160002060010160009054906101000a900473ffffffffffffffffffffffffffffffffffffffff1660008089815260200190815260200160002060020160009054906101000a900473ffffffffffffffffffffffffffffffffffffffff166000808a8152602001908152602001600020600301546000808b815260200190815260200160002060040160009054906101000a900460ff16848054610867906111c1565b80601f0160208091040260200160405190810160405280929190818152602001828054610893906111c1565b80156108e05780601f106108b5576101008083540402835291602001916108e0565b820191906000526020600020905b8154815290600101906020018083116108c357829003601f168201915b505050505094509450945094509450945091939590929450565b60015481565b60016000815480929190610913906112f8565b91905055506040518060a001604052808381526020013373ffffffffffffffffffffffffffffffffffffffff1681526020013373ffffffffffffffffffffffffffffffffffffffff168152602001828152602001600015158152506000806001548152602001908152602001600020600082015181600001908161099791906114ec565b5060208201518160010160006101000a81548173ffffffffffffffffffffffffffffffffffffffff021916908373ffffffffffffffffffffffffffffffffffffffff16021790555060408201518160020160006101000a81548173ffffffffffffffffffffffffffffffffffffffff021916908373ffffffffffffffffffffffffffffffffffffffff1602179055506060820151816003015560808201518160040160006101000a81548160ff0219169083151502179055509050507f6b17cffa3e0c41cd30c98794f0f17083cced8109e52154503d29425fb4d9c4f36001548333338542604051610a8e969594939291906115be565b60405180910390a15050565b6000819050919050565b610aad81610a9a565b82525050565b6000602082019050610ac86000830184610aa4565b92915050565b6000604051905090565b600080fd5b600080fd5b610aeb81610a9a565b8114610af657600080fd5b50565b600081359050610b0881610ae2565b92915050565b600060208284031215610b2457610b23610ad8565b5b6000610b3284828501610af9565b91505092915050565b600081519050919050565b600082825260208201905092915050565b60005b83811015610b75578082015181840152602081019050610b5a565b60008484015250505050565b6000601f19601f8301169050919050565b6000610b9d82610b3b565b610ba78185610b46565b9350610bb7818560208601610b57565b610bc081610b81565b840191505092915050565b600073ffffffffffffffffffffffffffffffffffffffff82169050919050565b6000610bf682610bcb565b9050919050565b610c0681610beb565b82525050565b60008115159050919050565b610c2181610c0c565b82525050565b600060a0820190508181036000830152610c418188610b92565b9050610c506020830187610bfd565b610c5d6040830186610bfd565b610c6a6060830185610aa4565b610c776080830184610c18565b9695505050505050565b610c8a81610c0c565b8114610c9557600080fd5b50565b600081359050610ca781610c81565b92915050565b600080600060608486031215610cc657610cc5610ad8565b5b6000610cd486828701610af9565b9350506020610ce586828701610af9565b9250506040610cf686828701610c98565b9150509250925092565b600080fd5b600080fd5b7f4e487b7100000000000000000000000000000000000000000000000000000000600052604160045260246000fd5b610d4282610b81565b810181811067ffffffffffffffff82111715610d6157610d60610d0a565b5b80604052505050565b6000610d74610ace565b9050610d808282610d39565b919050565b600067ffffffffffffffff821115610da057610d9f610d0a565b5b610da982610b81565b9050602081019050919050565b82818337600083830152505050565b6000610dd8610dd384610d85565b610d6a565b905082815260208101848484011115610df457610df3610d05565b5b610dff848285610db6565b509392505050565b600082601f830112610e1c57610e1b610d00565b5b8135610e2c848260208601610dc5565b91505092915050565b60008060408385031215610e4c57610e4b610ad8565b5b600083013567ffffffffffffffff811115610e6a57610e69610add565b5b610e7685828601610e07565b9250506020610e8785828601610af9565b9150509250929050565b7f4e6f6e2070756f69206163717569737461726520756e2070726f646f74746f2060008201527f706f7373656475746f0000000000000000000000000000000000000000000000602082015250565b6000610eed602983610b46565b9150610ef882610e91565b604082019050919050565b60006020820190508181036000830152610f1c81610ee0565b9050919050565b7f496c2070726f646f74746f206e6f6e2065736973746500000000000000000000600082015250565b6000610f59601683610b46565b9150610f6482610f23565b602082019050919050565b60006020820190508181036000830152610f8881610f4c565b9050919050565b7f50726f646f74746f206e6f6e20696e2076656e64697461000000000000000000600082015250565b6000610fc5601783610b46565b9150610fd082610f8f565b602082019050919050565b60006020820190508181036000830152610ff481610fb8565b9050919050565b7f4c6120736f6d6d6120646920457468657220696e7669617461206e6f6e20636f60008201527f72726973706f6e646520616c207072657a7a6f2064656c2070726f646f74746f602082015250565b6000611057604083610b46565b915061106282610ffb565b604082019050919050565b600060208201905081810360008301526110868161104a565b9050919050565b600081905092915050565b50565b60006110a860008361108d565b91506110b382611098565b600082019050919050565b60006110c98261109b565b9150819050919050565b7f4661696c656420746f2073656e64204574686572000000000000000000000000600082015250565b6000611109601483610b46565b9150611114826110d3565b602082019050919050565b60006020820190508181036000830152611138816110fc565b9050919050565b600060a0820190506111546000830188610aa4565b6111616020830187610bfd565b61116e6040830186610bfd565b61117b6060830185610aa4565b6111886080830184610aa4565b9695505050505050565b7f4e487b7100000000000000000000000000000000000000000000000000000000600052602260045260246000fd5b600060028204905060018216806111d957607f821691505b6020821081036111ec576111eb611192565b5b50919050565b7f4e6f6e2073656920696c2070726f70726965746172696f2064656c2070726f6460008201527f6f74746f00000000000000000000000000000000000000000000000000000000602082015250565b600061124e602483610b46565b9150611259826111f2565b604082019050919050565b6000602082019050818103600083015261127d81611241565b9050919050565b60006080820190506112996000830187610aa4565b6112a66020830186610aa4565b6112b36040830185610c18565b6112c06060830184610aa4565b95945050505050565b7f4e487b7100000000000000000000000000000000000000000000000000000000600052601160045260246000fd5b600061130382610a9a565b91507fffffffffffffffffffffffffffffffffffffffffffffffffffffffffffffffff8203611335576113346112c9565b5b600182019050919050565b60008190508160005260206000209050919050565b60006020601f8301049050919050565b600082821b905092915050565b6000600883026113a27fffffffffffffffffffffffffffffffffffffffffffffffffffffffffffffffff82611365565b6113ac8683611365565b95508019841693508086168417925050509392505050565b6000819050919050565b60006113e96113e46113df84610a9a565b6113c4565b610a9a565b9050919050565b6000819050919050565b611403836113ce565b61141761140f826113f0565b848454611372565b825550505050565b600090565b61142c61141f565b6114378184846113fa565b505050565b5b8181101561145b57611450600082611424565b60018101905061143d565b5050565b601f8211156114a05761147181611340565b61147a84611355565b81016020851015611489578190505b61149d61149585611355565b83018261143c565b50505b505050565b600082821c905092915050565b60006114c3600019846008026114a5565b1980831691505092915050565b60006114dc83836114b2565b9150826002028217905092915050565b6114f582610b3b565b67ffffffffffffffff81111561150e5761150d610d0a565b5b61151882546111c1565b61152382828561145f565b600060209050601f8311600181146115565760008415611544578287015190505b61154e85826114d0565b8655506115b6565b601f19841661156486611340565b60005b8281101561158c57848901518255600182019150602085019450602081019050611567565b868310156115a957848901516115a5601f8916826114b2565b8355505b6001600288020188555050505b505050505050565b600060c0820190506115d36000830189610aa4565b81810360208301526115e58188610b92565b90506115f46040830187610bfd565b6116016060830186610bfd565b61160e6080830185610aa4565b61161b60a0830184610aa4565b97965050505050505056fea26469706673582212203ee6bf84823cf1595d98d5319fb966ec32951512f84e44afa056af76be9964a664736f6c63430008130033",
  "immutableReferences": {},
  "source": "// SPDX-License-Identifier: MIT\r\npragma solidity ^0.8.19;\r\n\r\ncontract SupplyChain {\r\n\r\n    struct Product {\r\n        string name; // Nome del prodotto\r\n        address manufacturer; // Indirizzo del produttore\r\n        address currentLocation; // Indirizzo del proprietario attuale\r\n        uint256 price; // Prezzo del prodotto\r\n        bool isSold; // Flag che indica se il prodotto  in vendita\r\n    }\r\n\r\n    // Mappatura per tenere traccia dei prodotti creati\r\n    mapping (uint => Product) public products;\r\n\r\n    // Contatore dei prodotti presenti nel contratto\r\n    uint public productCount;\r\n\r\n    // Dichiarazione degli eventi emessi dal contratto\r\n    event ProductCreated(uint productId, string name, address manufacturer, address currentLocation, uint256 price, uint256 timestamp);\r\n    event ProductChanged(uint productId, uint256 newPrice, bool newStatus, uint256 timestamp);\r\n    event ProductSold(uint productId, address owner, address buyer, uint256 price, uint256 timestamp);\r\n    \r\n    modifier notOwner(uint _productId) {\r\n        // Verifica che l'acquirente del prodotto non sia gi il proprietario\r\n        require(products[_productId].currentLocation != msg.sender, \"Non puoi acquistare un prodotto posseduto\");\r\n        _;\r\n    }\r\n\r\n    modifier validProduct(uint _productId) {\r\n        // Verifica che l'id del prodotto esista realmente\r\n        require(_productId > 0 && _productId <= productCount, \"Il prodotto non esiste\");\r\n        // Verificat che il prodotto sia in vendita\r\n        require(products[_productId].isSold == false, \"Prodotto non in vendita\");\r\n        _;\r\n    }\r\n\r\n    modifier checkPrice(uint _productId) {\r\n        // Verifica se la somma di Ether inviata corrisponde al prezzo del prodotto\r\n        require(msg.value == products[_productId].price, \"La somma di Ether inviata non corrisponde al prezzo del prodotto\");\r\n        _;\r\n    }\r\n\r\n    modifier checkProductLocation(uint _productId) {\r\n         // Verifica se chi richiama la funzione  il proprietario del prodotto\r\n        require(products[_productId].currentLocation == msg.sender, \"Non sei il proprietario del prodotto\");\r\n        _;\r\n    }\r\n\r\n    // Funzione per la creazione di un nuovo prodotto\r\n    function createProduct(string memory _name, uint256 _price) public {\r\n        // Incrementa il contatore dei prodotti\r\n        productCount++;\r\n\r\n        // Aggiunge il nuovo prodotto alla mappatura dei prodotti\r\n        products[productCount] = Product(_name, msg.sender, msg.sender, _price, false);\r\n\r\n        // Emette l'evento ProductCreated per segnalare la creazione del nuovo prodotto\r\n        emit ProductCreated(productCount, _name, msg.sender, msg.sender, _price, block.timestamp);\r\n    }\r\n\r\n    // Funzione per ottenere il numero totale di prodotti presenti nel contratto\r\n    function getProductCount() public view returns (uint) {\r\n        return productCount;\r\n    }\r\n    \r\n    // Funzione per ottenere le informazioni relative a un determinato prodotto\r\n    function getProduct(uint productId) public view returns (string memory, address , address ,  uint256 , bool ) {\r\n        return (products[productId].name, products[productId].manufacturer, products[productId].currentLocation,\r\n            products[productId].price,products[productId].isSold);\r\n    }\r\n\r\n    // Funzione per acquistare un prodotto\r\n    function acquireProduct(uint _productId) payable public notOwner(_productId) validProduct(_productId) checkPrice(_productId) {\r\n        // Effettua il trasferimento di Ether dal compratore al venditore\r\n        (bool sent, ) = payable(products[_productId].currentLocation).call{value: msg.value}(\"\");\r\n\r\n        // Controllo che il trasferimento sia avvenuto con successo\r\n        require(sent, \"Failed to send Ether\");\r\n\r\n        // Tengo traccia del precedente proprietario per l'evento\r\n        address oldOwner = products[_productId].currentLocation;\r\n        // Aggiorna lo stato del prodotto\r\n        products[_productId].isSold = true;\r\n        // Aggiorna il proprietario del prodotto\r\n        products[_productId].currentLocation = msg.sender;\r\n\r\n        // Emetto l'evento ProductSold per segnalare l'acquisto del prodotto\r\n        emit ProductSold(_productId, oldOwner, msg.sender, msg.value, block.timestamp);\r\n    }\r\n\r\n    // Funzione per cambiare stato e prezzo di un prodotto\r\n    function changeProductAttr(uint _productId, uint256 _newPrice, bool _newStatus) public checkProductLocation(_productId) {\r\n        // Aggiorna il prezzo del prodotto\r\n        products[_productId].price = _newPrice;\r\n        // Aggiorna lo stato del prodotto\r\n        products[_productId].isSold = _newStatus;\r\n        // Emette l'evento ProductChanged per segnalare che il prodotto  stato modificato\r\n        emit ProductChanged(_productId, _newPrice, _newStatus, block.timestamp);\r\n    }\r\n\r\n}\r\n",
  "sourcePath": "C:\\Users\\mlimo\\Desktop\\GitHub\\SicurezzDeiDati\\contracts\\SupplyChain.sol",
  "compiler": {
    "name": "solc",
    "version": "0.8.19+commit.7dd6d404.Emscripten.clang"
  },
  "schemaVersion": "3.4.12",
  "updatedAt": "2023-03-27T15:24:58.038Z",
  "networkType": "ethereum",
  "devdoc": {
    "kind": "dev",
    "methods": {},
    "version": 1
  },
  "userdoc": {
    "kind": "user",
    "methods": {},
    "version": 1
  }
}